{
  "_format": "hh-sol-artifact-1",
  "contractName": "CeloPhoneRegistry",
  "sourceName": "contracts/CeloPhoneRegistry.sol",
  "abi": [
    {
      "anonymous": false,
      "inputs": [
        {
          "indexed": true,
          "internalType": "bytes32",
          "name": "phoneHash",
          "type": "bytes32"
        },
        {
          "indexed": true,
          "internalType": "address",
          "name": "wallet",
          "type": "address"
        },
        {
          "indexed": false,
          "internalType": "uint256",
          "name": "timestamp",
          "type": "uint256"
        }
      ],
      "name": "IdentityRegistered",
      "type": "event"
    },
    {
      "anonymous": false,
      "inputs": [
        {
          "indexed": true,
          "internalType": "bytes32",
          "name": "phoneHash",
          "type": "bytes32"
        },
        {
          "indexed": true,
          "internalType": "address",
          "name": "wallet",
          "type": "address"
        },
        {
          "indexed": false,
          "internalType": "uint256",
          "name": "amount",
          "type": "uint256"
        }
      ],
      "name": "PayoutRouted",
      "type": "event"
    },
    {
      "inputs": [
        {
          "internalType": "bytes32",
          "name": "",
          "type": "bytes32"
        }
      ],
      "name": "isRegistered",
      "outputs": [
        {
          "internalType": "bool",
          "name": "",
          "type": "bool"
        }
      ],
      "stateMutability": "view",
      "type": "function"
    },
    {
      "inputs": [
        {
          "internalType": "bytes32",
          "name": "phoneHash",
          "type": "bytes32"
        }
      ],
      "name": "isVerified",
      "outputs": [
        {
          "internalType": "bool",
          "name": "",
          "type": "bool"
        }
      ],
      "stateMutability": "view",
      "type": "function"
    },
    {
      "inputs": [
        {
          "internalType": "bytes32",
          "name": "",
          "type": "bytes32"
        }
      ],
      "name": "phoneToWallet",
      "outputs": [
        {
          "internalType": "address",
          "name": "",
          "type": "address"
        }
      ],
      "stateMutability": "view",
      "type": "function"
    },
    {
      "inputs": [
        {
          "internalType": "bytes32",
          "name": "phoneHash",
          "type": "bytes32"
        },
        {
          "internalType": "address",
          "name": "wallet",
          "type": "address"
        }
      ],
      "name": "registerIdentity",
      "outputs": [],
      "stateMutability": "nonpayable",
      "type": "function"
    },
    {
      "inputs": [
        {
          "internalType": "bytes32",
          "name": "phoneHash",
          "type": "bytes32"
        }
      ],
      "name": "resolveWallet",
      "outputs": [
        {
          "internalType": "address",
          "name": "",
          "type": "address"
        }
      ],
      "stateMutability": "view",
      "type": "function"
    },
    {
      "inputs": [
        {
          "internalType": "bytes32",
          "name": "phoneHash",
          "type": "bytes32"
        }
      ],
      "name": "routePayout",
      "outputs": [],
      "stateMutability": "payable",
      "type": "function"
    },
    {
      "stateMutability": "payable",
      "type": "receive"
    }
  ],
  "bytecode": "0x608060405234801561001057600080fd5b50610897806100206000396000f3fe6080604052600436106100595760003560e01c806309cfd00e1461006557806311ce13db1461008157806327258b22146100be578063a134531c146100fb578063b60ced0c14610124578063c181b2731461016157610060565b3661006057005b600080fd5b61007f600480360381019061007a9190610567565b61019e565b005b34801561008d57600080fd5b506100a860048036038101906100a39190610567565b6103a4565b6040516100b591906105d5565b60405180910390f35b3480156100ca57600080fd5b506100e560048036038101906100e09190610567565b6103e0565b6040516100f2919061060b565b60405180910390f35b34801561010757600080fd5b50610122600480360381019061011d9190610652565b610400565b005b34801561013057600080fd5b5061014b60048036038101906101469190610567565b6104cf565b60405161015891906105d5565b60405180910390f35b34801561016d57600080fd5b5061018860048036038101906101839190610567565b610502565b604051610195919061060b565b60405180910390f35b6001600082815260200190815260200160002060009054906101000a900460ff166101fe576040517f08c379a00000000000000000000000000000000000000000000000000000000081526004016101f5906106ef565b60405180910390fd5b600080600083815260200190815260200160002060009054906101000a900473ffffffffffffffffffffffffffffffffffffffff169050600073ffffffffffffffffffffffffffffffffffffffff168173ffffffffffffffffffffffffffffffffffffffff16036102a4576040517f08c379a000000000000000000000000000000000000000000000000000000000815260040161029b9061075b565b60405180910390fd5b60008173ffffffffffffffffffffffffffffffffffffffff16346040516102ca906107ac565b60006040518083038185875af1925050503d8060008114610307576040519150601f19603f3d011682016040523d82523d6000602084013e61030c565b606091505b5050905080610350576040517f08c379a00000000000000000000000000000000000000000000000000000000081526004016103479061080d565b60405180910390fd5b8173ffffffffffffffffffffffffffffffffffffffff16837f2302621e49dadbace68177cabc631897b647c2d6a85a03f23ee0b2cea588d8e2346040516103979190610846565b60405180910390a3505050565b600080600083815260200190815260200160002060009054906101000a900473ffffffffffffffffffffffffffffffffffffffff169050919050565b60016020528060005260406000206000915054906101000a900460ff1681565b8060008084815260200190815260200160002060006101000a81548173ffffffffffffffffffffffffffffffffffffffff021916908373ffffffffffffffffffffffffffffffffffffffff160217905550600180600084815260200190815260200160002060006101000a81548160ff0219169083151502179055508073ffffffffffffffffffffffffffffffffffffffff16827f4e7145d6db494779fea7c0fb6423db6bf3a60f90ce0e8128b7d70bf4701de460426040516104c39190610846565b60405180910390a35050565b60006020528060005260406000206000915054906101000a900473ffffffffffffffffffffffffffffffffffffffff1681565b60006001600083815260200190815260200160002060009054906101000a900460ff169050919050565b600080fd5b6000819050919050565b61054481610531565b811461054f57600080fd5b50565b6000813590506105618161053b565b92915050565b60006020828403121561057d5761057c61052c565b5b600061058b84828501610552565b91505092915050565b600073ffffffffffffffffffffffffffffffffffffffff82169050919050565b60006105bf82610594565b9050919050565b6105cf816105b4565b82525050565b60006020820190506105ea60008301846105c6565b92915050565b60008115159050919050565b610605816105f0565b82525050565b600060208201905061062060008301846105fc565b92915050565b61062f816105b4565b811461063a57600080fd5b50565b60008135905061064c81610626565b92915050565b600080604083850312156106695761066861052c565b5b600061067785828601610552565b92505060206106888582860161063d565b9150509250929050565b600082825260208201905092915050565b7f4964656e74697479206e6f742072656769737465726564000000000000000000600082015250565b60006106d9601783610692565b91506106e4826106a3565b602082019050919050565b60006020820190508181036000830152610708816106cc565b9050919050565b7f496e76616c696420726563697069656e74000000000000000000000000000000600082015250565b6000610745601183610692565b91506107508261070f565b602082019050919050565b6000602082019050818103600083015261077481610738565b9050919050565b600081905092915050565b50565b600061079660008361077b565b91506107a182610786565b600082019050919050565b60006107b782610789565b9150819050919050565b7f5061796f7574207472616e73666572206661696c656400000000000000000000600082015250565b60006107f7601683610692565b9150610802826107c1565b602082019050919050565b60006020820190508181036000830152610826816107ea565b9050919050565b6000819050919050565b6108408161082d565b82525050565b600060208201905061085b6000830184610837565b9291505056fea26469706673582212205d0cb100629a752c7d2b1b3e0236891d417521d61022b26a8ebfe1685a326b2864736f6c63430008140033",
  "linkReferences": {},
  "deployedLinkReferences": {}
}