{
  "_format": "hh-sol-artifact-1",
  "contractName": "ImpactEngine",
  "sourceName": "contracts/ImpactEngine.sol",
  "abi": [
    {
      "inputs": [
        {
          "internalType": "uint256",
          "name": "_agentId",
          "type": "uint256"
        }
      ],
      "stateMutability": "nonpayable",
      "type": "constructor"
    },
    {
      "inputs": [
        {
          "internalType": "address",
          "name": "owner",
          "type": "address"
        }
      ],
      "name": "OwnableInvalidOwner",
      "type": "error"
    },
    {
      "inputs": [
        {
          "internalType": "address",
          "name": "account",
          "type": "address"
        }
      ],
      "name": "OwnableUnauthorizedAccount",
      "type": "error"
    },
    {
      "anonymous": false,
      "inputs": [
        {
          "indexed": true,
          "internalType": "address",
          "name": "previousOwner",
          "type": "address"
        },
        {
          "indexed": true,
          "internalType": "address",
          "name": "newOwner",
          "type": "address"
        }
      ],
      "name": "OwnershipTransferred",
      "type": "event"
    },
    {
      "anonymous": false,
      "inputs": [
        {
          "indexed": true,
          "internalType": "bytes32",
          "name": "phoneHash",
          "type": "bytes32"
        },
        {
          "indexed": false,
          "internalType": "uint256",
          "name": "amount",
          "type": "uint256"
        }
      ],
      "name": "SocialDividendDistributed",
      "type": "event"
    },
    {
      "inputs": [],
      "name": "agentId",
      "outputs": [
        {
          "internalType": "uint256",
          "name": "",
          "type": "uint256"
        }
      ],
      "stateMutability": "view",
      "type": "function"
    },
    {
      "inputs": [
        {
          "internalType": "bytes32",
          "name": "phoneHash",
          "type": "bytes32"
        },
        {
          "internalType": "uint256",
          "name": "amount",
          "type": "uint256"
        }
      ],
      "name": "distributeSocialDividend",
      "outputs": [],
      "stateMutability": "nonpayable",
      "type": "function"
    },
    {
      "inputs": [
        {
          "internalType": "bytes",
          "name": "",
          "type": "bytes"
        }
      ],
      "name": "executeAction",
      "outputs": [
        {
          "internalType": "bool",
          "name": "",
          "type": "bool"
        }
      ],
      "stateMutability": "payable",
      "type": "function"
    },
    {
      "inputs": [],
      "name": "owner",
      "outputs": [
        {
          "internalType": "address",
          "name": "",
          "type": "address"
        }
      ],
      "stateMutability": "view",
      "type": "function"
    },
    {
      "inputs": [],
      "name": "renounceOwnership",
      "outputs": [],
      "stateMutability": "nonpayable",
      "type": "function"
    },
    {
      "inputs": [
        {
          "internalType": "address",
          "name": "newOwner",
          "type": "address"
        }
      ],
      "name": "transferOwnership",
      "outputs": [],
      "stateMutability": "nonpayable",
      "type": "function"
    },
    {
      "stateMutability": "payable",
      "type": "receive"
    }
  ],
  "bytecode": "0x60a060405234801561001057600080fd5b50604051610a9d380380610a9d833981810160405281019061003291906101c2565b33600073ffffffffffffffffffffffffffffffffffffffff168173ffffffffffffffffffffffffffffffffffffffff16036100a55760006040517f1e4fbdf700000000000000000000000000000000000000000000000000000000815260040161009c9190610230565b60405180910390fd5b6100b4816100c360201b60201c565b5080608081815250505061024b565b60008060009054906101000a900473ffffffffffffffffffffffffffffffffffffffff169050816000806101000a81548173ffffffffffffffffffffffffffffffffffffffff021916908373ffffffffffffffffffffffffffffffffffffffff1602179055508173ffffffffffffffffffffffffffffffffffffffff168173ffffffffffffffffffffffffffffffffffffffff167f8be0079c531659141344cd1fd0a4f28419497f9722a3daafe3b4186f6b6457e060405160405180910390a35050565b600080fd5b6000819050919050565b61019f8161018c565b81146101aa57600080fd5b50565b6000815190506101bc81610196565b92915050565b6000602082840312156101d8576101d7610187565b5b60006101e6848285016101ad565b91505092915050565b600073ffffffffffffffffffffffffffffffffffffffff82169050919050565b600061021a826101ef565b9050919050565b61022a8161020f565b82525050565b60006020820190506102456000830184610221565b92915050565b608051610837610266600039600061022501526108376000f3fe6080604052600436106100595760003560e01c8063715018a6146100655780638da5cb5b1461007c578063a129568d146100a7578063d9c8af8b146100d7578063e84f43b714610100578063f2fde38b1461012b57610060565b3661006057005b600080fd5b34801561007157600080fd5b5061007a610154565b005b34801561008857600080fd5b50610091610168565b60405161009e9190610461565b60405180910390f35b6100c160048036038101906100bc91906105d6565b610191565b6040516100ce919061063a565b60405180910390f35b3480156100e357600080fd5b506100fe60048036038101906100f991906106c1565b6101a4565b005b34801561010c57600080fd5b50610115610223565b6040516101229190610710565b60405180910390f35b34801561013757600080fd5b50610152600480360381019061014d9190610757565b610247565b005b61015c6102cd565b6101666000610354565b565b60008060009054906101000a900473ffffffffffffffffffffffffffffffffffffffff16905090565b600061019b6102cd565b60019050919050565b804710156101e7576040517f08c379a00000000000000000000000000000000000000000000000000000000081526004016101de906107e1565b60405180910390fd5b817f35fabd6538cd141cab61bae73cfe5b135a28f03ae7473aa76a0203de9be264ee826040516102179190610710565b60405180910390a25050565b7f000000000000000000000000000000000000000000000000000000000000000081565b61024f6102cd565b600073ffffffffffffffffffffffffffffffffffffffff168173ffffffffffffffffffffffffffffffffffffffff16036102c15760006040517f1e4fbdf70000000000000000000000000000000000000000000000000000000081526004016102b89190610461565b60405180910390fd5b6102ca81610354565b50565b6102d5610418565b73ffffffffffffffffffffffffffffffffffffffff166102f3610168565b73ffffffffffffffffffffffffffffffffffffffff161461035257610316610418565b6040517f118cdaa70000000000000000000000000000000000000000000000000000000081526004016103499190610461565b60405180910390fd5b565b60008060009054906101000a900473ffffffffffffffffffffffffffffffffffffffff169050816000806101000a81548173ffffffffffffffffffffffffffffffffffffffff021916908373ffffffffffffffffffffffffffffffffffffffff1602179055508173ffffffffffffffffffffffffffffffffffffffff168173ffffffffffffffffffffffffffffffffffffffff167f8be0079c531659141344cd1fd0a4f28419497f9722a3daafe3b4186f6b6457e060405160405180910390a35050565b600033905090565b600073ffffffffffffffffffffffffffffffffffffffff82169050919050565b600061044b82610420565b9050919050565b61045b81610440565b82525050565b60006020820190506104766000830184610452565b92915050565b6000604051905090565b600080fd5b600080fd5b600080fd5b600080fd5b6000601f19601f8301169050919050565b7f4e487b7100000000000000000000000000000000000000000000000000000000600052604160045260246000fd5b6104e38261049a565b810181811067ffffffffffffffff82111715610502576105016104ab565b5b80604052505050565b600061051561047c565b905061052182826104da565b919050565b600067ffffffffffffffff821115610541576105406104ab565b5b61054a8261049a565b9050602081019050919050565b82818337600083830152505050565b600061057961057484610526565b61050b565b90508281526020810184848401111561059557610594610495565b5b6105a0848285610557565b509392505050565b600082601f8301126105bd576105bc610490565b5b81356105cd848260208601610566565b91505092915050565b6000602082840312156105ec576105eb610486565b5b600082013567ffffffffffffffff81111561060a5761060961048b565b5b610616848285016105a8565b91505092915050565b60008115159050919050565b6106348161061f565b82525050565b600060208201905061064f600083018461062b565b92915050565b6000819050919050565b61066881610655565b811461067357600080fd5b50565b6000813590506106858161065f565b92915050565b6000819050919050565b61069e8161068b565b81146106a957600080fd5b50565b6000813590506106bb81610695565b92915050565b600080604083850312156106d8576106d7610486565b5b60006106e685828601610676565b92505060206106f7858286016106ac565b9150509250929050565b61070a8161068b565b82525050565b60006020820190506107256000830184610701565b92915050565b61073481610440565b811461073f57600080fd5b50565b6000813590506107518161072b565b92915050565b60006020828403121561076d5761076c610486565b5b600061077b84828501610742565b91505092915050565b600082825260208201905092915050565b7f496e73756666696369656e742062616c616e6365000000000000000000000000600082015250565b60006107cb601483610784565b91506107d682610795565b602082019050919050565b600060208201905081810360008301526107fa816107be565b905091905056fea26469706673582212201545532a588a2967116fd056a5834963c14df157b0af436a4ed478dc258c1af864736f6c63430008140033",
  "linkReferences": {},
  "deployedLinkReferences": {}
}